{
  "contractName": "mortal",
  "abi": [
    {
      "constant": false,
      "inputs": [],
      "name": "kill",
      "outputs": [],
      "payable": false,
      "stateMutability": "nonpayable",
      "type": "function"
    },
    {
      "inputs": [],
      "payable": false,
      "stateMutability": "nonpayable",
      "type": "constructor"
    }
  ],
  "bytecode": "0x6060604052341561000f57600080fd5b336000806101000a81548173ffffffffffffffffffffffffffffffffffffffff021916908373ffffffffffffffffffffffffffffffffffffffff1602179055506101128061005e6000396000f300606060405260043610603f576000357c0100000000000000000000000000000000000000000000000000000000900463ffffffff16806341c0e1b5146044575b600080fd5b3415604e57600080fd5b60546056565b005b6000809054906101000a900473ffffffffffffffffffffffffffffffffffffffff1673ffffffffffffffffffffffffffffffffffffffff163373ffffffffffffffffffffffffffffffffffffffff16141560e4576000809054906101000a900473ffffffffffffffffffffffffffffffffffffffff1673ffffffffffffffffffffffffffffffffffffffff16ff5b5600a165627a7a72305820f0b6766bce5935297fed4f50094899a4fda401b09ceb32d6d8d61407d7faff570029",
  "source": "pragma solidity ^0.4.9;\r\n\r\ncontract mortal {\r\n /* Define variable owner of the type address*/\r\n address owner;\r\n\r\n /* this function is executed at initialization and sets the owner of the contract */\r\n\r\nfunction mortal() { owner = msg.sender; }\r\n   /* Function to recover the funds on the contract */\r\n   function kill() { if (msg.sender == owner) selfdestruct(owner); }\r\n}",
  "sourcePath": "C:\\VSTS\\GreeterContractTest\\contracts\\Mortal.sol",
  "compiler": {
    "name": "solc",
    "version": "0.4.18+commit.9cf6e910.Emscripten.clang"
  },
  "schemaVersion": "1.0.1",
  "updatedAt": "2018-01-08T17:51:36.884Z"
}